{
  "contractName": "Bank",
  "abi": [
    {
      "constant": true,
      "inputs": [
        {
          "name": "_userId",
          "type": "uint256"
        },
        {
          "name": "_startIndex",
          "type": "uint256"
        }
      ],
      "name": "getUserAccountIndexDesc",
      "outputs": [
        {
          "name": "accountIndexList",
          "type": "bytes32[10]"
        }
      ],
      "payable": false,
      "stateMutability": "view",
      "type": "function"
    },
    {
      "constant": true,
      "inputs": [
        {
          "name": "_userId",
          "type": "uint256"
        },
        {
          "name": "_startIndex",
          "type": "uint256"
        }
      ],
      "name": "getUserTransactionIndexDesc",
      "outputs": [
        {
          "name": "transactionIndexList",
          "type": "uint256[10]"
        }
      ],
      "payable": false,
      "stateMutability": "view",
      "type": "function"
    },
    {
      "constant": true,
      "inputs": [
        {
          "name": "_userId",
          "type": "uint256"
        }
      ],
      "name": "getUserInfo",
      "outputs": [
        {
          "name": "userInfo",
          "type": "bytes32[3]"
        }
      ],
      "payable": false,
      "stateMutability": "view",
      "type": "function"
    },
    {
      "constant": false,
      "inputs": [
        {
          "name": "_userName",
          "type": "bytes32"
        },
        {
          "name": "_userAddress",
          "type": "bytes32"
        }
      ],
      "name": "registUserInfo",
      "outputs": [
        {
          "name": "userId",
          "type": "uint256"
        }
      ],
      "payable": false,
      "stateMutability": "nonpayable",
      "type": "function"
    },
    {
      "constant": false,
      "inputs": [
        {
          "name": "_userId",
          "type": "uint256"
        },
        {
          "name": "_userName",
          "type": "bytes32"
        },
        {
          "name": "_userAddress",
          "type": "bytes32"
        }
      ],
      "name": "updateUserInfo",
      "outputs": [
        {
          "name": "result",
          "type": "bool"
        }
      ],
      "payable": false,
      "stateMutability": "nonpayable",
      "type": "function"
    },
    {
      "constant": false,
      "inputs": [
        {
          "name": "_userId",
          "type": "uint256"
        }
      ],
      "name": "deleteUserInfo",
      "outputs": [
        {
          "name": "result",
          "type": "bool"
        }
      ],
      "payable": false,
      "stateMutability": "nonpayable",
      "type": "function"
    },
    {
      "constant": true,
      "inputs": [
        {
          "name": "_accountNo",
          "type": "bytes32"
        }
      ],
      "name": "getAccountInfo",
      "outputs": [
        {
          "name": "accountInfo",
          "type": "bytes32[6]"
        }
      ],
      "payable": false,
      "stateMutability": "view",
      "type": "function"
    },
    {
      "constant": false,
      "inputs": [
        {
          "name": "_accountNo",
          "type": "bytes32"
        },
        {
          "name": "_accountHolderName",
          "type": "bytes32"
        },
        {
          "name": "_accountType",
          "type": "uint256"
        },
        {
          "name": "_currency",
          "type": "bytes32"
        },
        {
          "name": "_balance",
          "type": "uint256"
        },
        {
          "name": "_userId",
          "type": "uint256"
        }
      ],
      "name": "registAccountInfo",
      "outputs": [
        {
          "name": "result",
          "type": "bool"
        }
      ],
      "payable": false,
      "stateMutability": "nonpayable",
      "type": "function"
    },
    {
      "constant": false,
      "inputs": [
        {
          "name": "_accountNo",
          "type": "bytes32"
        }
      ],
      "name": "deleteAccountInfo",
      "outputs": [
        {
          "name": "result",
          "type": "bool"
        }
      ],
      "payable": false,
      "stateMutability": "nonpayable",
      "type": "function"
    },
    {
      "constant": true,
      "inputs": [
        {
          "name": "_transactionId",
          "type": "uint256"
        }
      ],
      "name": "getTransactionInfo",
      "outputs": [
        {
          "name": "transactionInfo",
          "type": "bytes32[13]"
        }
      ],
      "payable": false,
      "stateMutability": "view",
      "type": "function"
    },
    {
      "constant": false,
      "inputs": [
        {
          "name": "_transactionType",
          "type": "uint256"
        },
        {
          "name": "_fromAccountNo",
          "type": "bytes32"
        },
        {
          "name": "_toAccountNo",
          "type": "bytes32"
        },
        {
          "name": "_fromAccountHolderName",
          "type": "bytes32"
        },
        {
          "name": "_toAccountHolderName",
          "type": "bytes32"
        },
        {
          "name": "_fromCurrency",
          "type": "bytes32"
        },
        {
          "name": "_toCurrency",
          "type": "bytes32"
        },
        {
          "name": "_rate",
          "type": "bytes32"
        },
        {
          "name": "_fromPrinc",
          "type": "uint256"
        },
        {
          "name": "_toPrinc",
          "type": "uint256"
        }
      ],
      "name": "transfer",
      "outputs": [
        {
          "name": "result",
          "type": "bool"
        }
      ],
      "payable": false,
      "stateMutability": "nonpayable",
      "type": "function"
    }
  ],
  "bytecode": "0x606060405260006005556000600655341561001957600080fd5b61158c806100286000396000f3006060604052600436106100af576000357c0100000000000000000000000000000000000000000000000000000000900463ffffffff1680632b3426f5146100b457806340b96d151461011c57806347b4204a146101575780635123545f146101ff578063b188395c1461023e578063d379dadf146102a6578063d474cf7b14610305578063d7aa82731461034d578063df48c4a8146103ac578063e755ada414610420578063fc8f8d0214610475575b600080fd5b34156100bf57600080fd5b6100de60048080359060200190919080359060200190919050506104d8565b6040518082600a60200280838360005b838110156101095780820151818401526020810190506100ee565b5050505090500191505060405180910390f35b341561012757600080fd5b61013d600480803590602001909190505061057e565b604051808215151515815260200191505060405180910390f35b341561016257600080fd5b6101e56004808035906020019091908035600019169060200190919080356000191690602001909190803560001916906020019091908035600019169060200190919080356000191690602001909190803560001916906020019091908035600019169060200190919080359060200190919080359060200190919050506105d5565b604051808215151515815260200191505060405180910390f35b341561020a57600080fd5b6102246004808035600019169060200190919050506109c1565b604051808215151515815260200191505060405180910390f35b341561024957600080fd5b6102686004808035906020019091908035906020019091905050610a20565b6040518082600a60200280838360005b83811015610293578082015181840152602081019050610278565b5050505090500191505060405180910390f35b34156102b157600080fd5b6102c76004808035906020019091905050610ad0565b6040518082600360200280838360005b838110156102f25780820151818401526020810190506102d7565b5050505090500191505060405180910390f35b341561031057600080fd5b61033760048080356000191690602001909190803560001916906020019091905050610b8b565b6040518082815260200191505060405180910390f35b341561035857600080fd5b61036e6004808035906020019091905050610c4d565b6040518082600d60200280838360005b8381101561039957808201518184015260208101905061037e565b5050505090500191505060405180910390f35b34156103b757600080fd5b6104066004808035600019169060200190919080356000191690602001909190803590602001909190803560001916906020019091908035906020019091908035906020019091905050610f54565b604051808215151515815260200191505060405180910390f35b341561042b57600080fd5b61045b600480803590602001909190803560001916906020019091908035600019169060200190919050506110ff565b604051808215151515815260200191505060405180910390f35b341561048057600080fd5b61049a600480803560001916906020019091905050611166565b6040518082600660200280838360005b838110156104c55780820151818401526020810190506104aa565b5050505090500191505060405180910390f35b6104e06113e7565b6000806000600460008781526020019081526020016000208054905092506000915084600184030390505b808211151561057557600a8210151561052357610575565b6004600087815260200190815260200160002082820381548110151561054557fe5b9060005260206000209001548483600a8110151561055f57fe5b602002018181525050818060010192505061050b565b50505092915050565b600080151561058c83611305565b1515141561059d57600090506105d0565b600160008084815260200190815260200160002060030160006101000a81548160ff021916908315150217905550600190505b919050565b60008560001916600160008c60001916600019168152602001908152602001600020600301546000191614151561060f57600090506109b3565b82600160008c6000191660001916815260200190815260200160002060040154101561063e57600090506109b3565b600660008154809291906001019190505550600654600360006006548152602001908152602001600020600001819055506000600360006006548152602001908152602001600020600101819055508a6003600060065481526020019081526020016000206002018190555089600360006006548152602001908152602001600020600301816000191690555088600360006006548152602001908152602001600020600401816000191690555087600360006006548152602001908152602001600020600501816000191690555086600360006006548152602001908152602001600020600601816000191690555085600360006006548152602001908152602001600020600701816000191690555084600360006006548152602001908152602001600020600801816000191690555083600360006006548152602001908152602001600020600901816000191690555082600360006006548152602001908152602001600020600a018190555081600360006006548152602001908152602001600020600b018190555042600360006006548152602001908152602001600020600c018190555082600160008c600019166000191681526020019081526020016000206004015403600160008c600019166000191681526020019081526020016000206004018190555042600160008c600019166000191681526020019081526020016000206007018190555081600160008b600019166000191681526020019081526020016000206004015401600160008b600019166000191681526020019081526020016000206004018190555042600160008b600019166000191681526020019081526020016000206007018190555060046000600160008d6000191660001916815260200190815260200160002060050154815260200190815260200160002080548060010182816108f79190611410565b9160005260206000209001600060065490919091505550600160008a6000191660001916815260200190815260200160002060050154600160008c60001916600019168152602001908152602001600020600501541415156109ae5760046000600160008c6000191660001916815260200190815260200160002060050154815260200190815260200160002080548060010182816109969190611410565b91600052602060002090016000600654909190915055505b600190505b9a9950505050505050505050565b60008015156109cf83611369565b151514156109e05760009050610a1b565b6001806000846000191660001916815260200190815260200160002060080160006101000a81548160ff021916908315150217905550600190505b919050565b610a2861143c565b6000806000600260008781526020019081526020016000208054905092506000915084600184030390505b8082111515610ac757600a82101515610a6b57610ac7565b60026000878152602001908152602001600020828203815481101515610a8d57fe5b9060005260206000209001548483600a81101515610aa757fe5b602002019060001916908160001916815250508180600101925050610a53565b50505092915050565b610ad8611468565b60008083815260200190815260200160002060000154600102816000600381101515610b0057fe5b6020020190600019169081600019168152505060008083815260200190815260200160002060010154816001600381101515610b3857fe5b6020020190600019169081600019168152505060008083815260200190815260200160002060020154816002600381101515610b7057fe5b60200201906000191690816000191681525050809050919050565b6000600560008154809291906001019190505550600554600080600554815260200190815260200160002060000181905550826000806005548152602001908152602001600020600101816000191690555081600080600554815260200190815260200160002060020181600019169055506000806000600554815260200190815260200160002060030160006101000a81548160ff021916908315150217905550600080600554815260200190815260200160002060000154905092915050565b610c55611493565b6003600083815260200190815260200160002060000154600102816000600d81101515610c7e57fe5b602002019060001916908160001916815250506003600083815260200190815260200160002060010154600102816001600d81101515610cba57fe5b602002019060001916908160001916815250506003600083815260200190815260200160002060020154600102816002600d81101515610cf657fe5b602002019060001916908160001916815250506003600083815260200190815260200160002060030154816003600d81101515610d2f57fe5b602002019060001916908160001916815250506003600083815260200190815260200160002060040154816004600d81101515610d6857fe5b602002019060001916908160001916815250506003600083815260200190815260200160002060050154816005600d81101515610da157fe5b602002019060001916908160001916815250506003600083815260200190815260200160002060060154816006600d81101515610dda57fe5b602002019060001916908160001916815250506003600083815260200190815260200160002060070154816007600d81101515610e1357fe5b602002019060001916908160001916815250506003600083815260200190815260200160002060080154816008600d81101515610e4c57fe5b602002019060001916908160001916815250506003600083815260200190815260200160002060090154816009600d81101515610e8557fe5b6020020190600019169081600019168152505060036000838152602001908152602001600020600a015460010281600a600d81101515610ec157fe5b6020020190600019169081600019168152505060036000838152602001908152602001600020600b015460010281600b600d81101515610efd57fe5b6020020190600019169081600019168152505060036000838152602001908152602001600020600c015460010281600c600d81101515610f3957fe5b60200201906000191690816000191681525050809050919050565b600086600160008960001916600019168152602001908152602001600020600001816000191690555085600160008960001916600019168152602001908152602001600020600101816000191690555084600160008960001916600019168152602001908152602001600020600201819055508360016000896000191660001916815260200190815260200160002060030181600019169055508260016000896000191660001916815260200190815260200160002060040181905550816001600089600019166000191681526020019081526020016000206005018190555042600160008960001916600019168152602001908152602001600020600601819055504260016000896000191660001916815260200190815260200160002060070181905550600060016000896000191660001916815260200190815260200160002060080160006101000a81548160ff0219169083151502179055506002600083815260200190815260200160002080548060010182816110d691906114bf565b916000526020600020900160008990919091509060001916905550600190509695505050505050565b600080151561110d85611305565b1515141561111e576000905061115f565b826000808681526020019081526020016000206001018160001916905550816000808681526020019081526020016000206002018160001916905550600190505b9392505050565b61116e6114eb565b6001600083600019166000191681526020019081526020016000206000015481600060068110151561119c57fe5b60200201906000191690816000191681525050600160008360001916600019168152602001908152602001600020600101548160016006811015156111dd57fe5b602002019060001916908160001916815250506001600083600019166000191681526020019081526020016000206002015460010281600260068110151561122157fe5b602002019060001916908160001916815250506001600083600019166000191681526020019081526020016000206003015481600360068110151561126257fe5b60200201906000191690816000191681525050600160008360001916600019168152602001908152602001600020600401546001028160046006811015156112a657fe5b60200201906000191690816000191681525050600160008360001916600019168152602001908152602001600020600501546001028160056006811015156112ea57fe5b60200201906000191690816000191681525050809050919050565b6000806000838152602001908152602001600020600001548214151561132e5760009050611364565b60008083815260200190815260200160002060030160009054906101000a900460ff161561135f5760009050611364565b600190505b919050565b6000600160008360001916600019168152602001908152602001600020600001546000191682600019161415156113a357600090506113e2565b60016000836000191660001916815260200190815260200160002060080160009054906101000a900460ff16156113dd57600090506113e2565b600190505b919050565b61014060405190810160405280600a905b60008152602001906001900390816113f85790505090565b815481835581811511611437578183600052602060002091820191016114369190611516565b5b505050565b61014060405190810160405280600a905b600080191681526020019060019003908161144d5790505090565b6060604051908101604052806003905b60008019168152602001906001900390816114785790505090565b6101a060405190810160405280600d905b60008019168152602001906001900390816114a45790505090565b8154818355818115116114e6578183600052602060002091820191016114e5919061153b565b5b505050565b60c0604051908101604052806006905b60008019168152602001906001900390816114fb5790505090565b61153891905b8082111561153457600081600090555060010161151c565b5090565b90565b61155d91905b80821115611559576000816000905550600101611541565b5090565b905600a165627a7a7230582049906977513f080cf412d7a8c49a2dadf799d692324c385fa5ff565feb5366d30029",
  "source": "pragma solidity ^0.4.0;\r\ncontract Bank {\r\n\r\n// --ストラクチャ定義 Start--\r\n\t// ユーザ情報\r\n\tstruct UserInfo {\r\n\t\t// ユーザID\r\n\t\tuint userId;\r\n\t\t// ユーザ名\r\n\t\tbytes32 userName;\r\n        // ユーザー住所\r\n        bytes32 userAddress;\r\n        // 削除フラグ\r\n\t\tbool delFlg;\r\n\t}\r\n\r\n\t// 口座情報\r\n\tstruct AccountInfo {\r\n\t\t// 口座Address\r\n\t\tbytes32 accountNo;\r\n        // 口座名義\r\n        bytes32 accountHolderName;\r\n\t\t// 口座種別\r\n\t\tuint accountType;\r\n\t\t// 通貨\r\n\t\tbytes32 currency;\r\n\t\t// 残高\r\n\t\tuint balance;\r\n\t\t// ユーザID\r\n\t\tuint userId;\r\n\t\t// 作成タイムスタンプ\r\n\t\tuint createTimestamp;\r\n\t\t// 更新タイムスタンプ\r\n\t\tuint updateTimestamp;\r\n        // 削除フラグ\r\n        bool delFlg;\r\n\t}\r\n\r\n\t// 為替トランザクション\r\n\tstruct TransactionInfo {\r\n        // トランザクションID\r\n        uint transactionId;\r\n        // ステータス（現状0のみ）\r\n        uint transactionStatus;\r\n        // 取引種別（現状、為替のみ）\r\n        uint transactionType;\r\n        // 送金元口座\r\n        bytes32 fromAccountNo;\r\n        // 送金先口座\r\n        bytes32 toAccountNo;\r\n        // 送金元口座名義\r\n        bytes32 fromAccountHolderName;\r\n        // 送金先口座名義\r\n        bytes32 toAccountHolderName;\r\n        // 送金元通貨\r\n        bytes32 fromCurrency;\r\n        // 送金先通貨\r\n        bytes32 toCurrency;\r\n        // レート\r\n        bytes32 rate;\r\n        // 送金元元本\r\n        uint fromPrinc;\r\n        // 送金先元本\r\n        uint toPrinc;\r\n        // タイムスタンプ\r\n        uint timestamp;\r\n\t}\r\n// --ストラクチャ定義 End--\r\n\r\n// --定数定義 Start--\r\n    // 銀行の口座番号\r\n    bytes32 constant BANK_ACCOUNT_NO = \"0\" ;\r\n    // 銀行の顧客番号\r\n    uint constant BANK_USER_ID = 0 ;\r\n    // 取引種別(内為)\r\n    uint constant TRN_TYPE_NAI = 0;\r\n    // 取引種別(外為)\r\n    uint constant TRN_TYPE_GAI = 1;\r\n    \r\n// --定数定義 End--\r\n\r\n// --変数定義 Start--\t\r\n\tmapping (uint => UserInfo) userInfoList;\r\n\tmapping (bytes32 => AccountInfo) accountInfoList;\r\n    mapping (uint => bytes32[]) userAccountIndex;\r\n\tmapping (uint => TransactionInfo) transactionInfoList;\r\n    mapping (uint => uint[]) userTransactionIndex;\r\n    uint private userCounter = 0;\r\n\tuint private transactionCounter = 0;\r\n// --変数定義 End--\r\n\r\n// --Public関数定義 Start--\r\n    // indexリストの取得\r\n    function getUserAccountIndexDesc(uint _userId,uint _startIndex) public constant returns(bytes32[10] accountIndexList ){\r\n        \r\n        uint num = userAccountIndex[_userId].length;\r\n\t\tuint counter = 0;\r\n\t\tuint indexIndex = num - 1 - _startIndex;\r\n\t\t\r\n\t\twhile (counter <= indexIndex) {\r\n\t\t\tif (counter >= 10) {\r\n\t\t\t\t break;\r\n\t\t\t}\r\n\t\t\t\r\n\t\t\taccountIndexList[counter] = userAccountIndex[_userId][indexIndex - counter];\r\n\t\t\t\r\n\t\t\tcounter++;\r\n\t\t}\r\n    }\r\n    // indexリストの取得\r\n    function getUserTransactionIndexDesc(uint _userId,uint _startIndex) public constant returns(uint[10] transactionIndexList ){\r\n        \r\n        uint num = userTransactionIndex[_userId].length;\r\n\t\tuint counter = 0;\r\n\t\tuint indexIndex = num - 1 - _startIndex;\r\n\t\t\r\n\t\twhile (counter <= indexIndex) {\r\n\t\t\tif (counter >= 10) {\r\n\t\t\t\t break;\r\n\t\t\t}\r\n\t\t\t\r\n\t\t\ttransactionIndexList[counter] = userTransactionIndex[_userId][indexIndex - counter];\r\n\t\t\t\r\n\t\t\tcounter++;\r\n\t\t}\r\n    }\r\n\r\n\t// ユーザの参照\r\n\tfunction getUserInfo(uint _userId) public constant returns(bytes32[3] userInfo) {\r\n\t\t\t\r\n\t\t// ユーザ情報の参照\r\n\t\tuserInfo[0] = bytes32(userInfoList[_userId].userId);\r\n        userInfo[1] = userInfoList[_userId].userName;\r\n        userInfo[2] = userInfoList[_userId].userAddress;\r\n\r\n\t\treturn userInfo;\r\n\t}\r\n    // ユーザの登録\r\n\tfunction registUserInfo(bytes32 _userName, bytes32 _userAddress) public returns(uint userId) {\r\n\t\t\t\r\n\t\t// ユーザ情報の登録\r\n\t\tuserCounter++;\r\n        userInfoList[userCounter].userId = userCounter;\r\n\t\tuserInfoList[userCounter].userName = _userName;\r\n        userInfoList[userCounter].userAddress = _userAddress;\r\n\t\tuserInfoList[userCounter].delFlg = false;\r\n\t\t\r\n\t\treturn userInfoList[userCounter].userId;\r\n\t}\r\n\t\r\n\t// ユーザの更新\r\n\tfunction updateUserInfo(uint _userId,bytes32 _userName, bytes32 _userAddress) public returns(bool result) {\r\n\t\t\r\n\t\t// ユーザ登録していない場合はエラーを返す\r\n\t\tif (checkUserExistence(_userId) == false) {\r\n\t\t\treturn false;\r\n\t\t}\r\n\t\t\r\n\t\t// ユーザ情報の登録\r\n\t\tuserInfoList[_userId].userName = _userName;\r\n\t\tuserInfoList[_userId].userAddress = _userAddress;\r\n\t\t\r\n\t\treturn true;\r\n\t}\r\n\t\r\n\t// ユーザの削除\r\n\tfunction deleteUserInfo(uint _userId) public returns(bool result) {\r\n\t\t\r\n\t\t// ユーザ登録していない場合はエラーを返す\r\n\t\tif (checkUserExistence(_userId) == false) {\r\n\t\t\treturn false;\r\n\t\t}\r\n\t\t\r\n\t\t// @ToDo 削除のための条件を追加\r\n\t\t\r\n\t\t\r\n\t\t// ユーザ情報の更新\r\n\t\tuserInfoList[_userId].delFlg = true;\r\n\t\t\r\n\t\treturn true;\r\n\t}\r\n\t// 口座の参照\r\n\tfunction getAccountInfo(bytes32 _accountNo) public constant returns(bytes32[6] accountInfo) {\r\n\t\t\t\r\n\t\t// ユーザ情報の参照\r\n\t\taccountInfo[0] = accountInfoList[_accountNo].accountNo;\r\n        accountInfo[1] = accountInfoList[_accountNo].accountHolderName;\r\n\t\taccountInfo[2] = bytes32(accountInfoList[_accountNo].accountType);\r\n\t\taccountInfo[3] = accountInfoList[_accountNo].currency;\r\n\t\taccountInfo[4] = bytes32(accountInfoList[_accountNo].balance);\r\n\t\taccountInfo[5] = bytes32(accountInfoList[_accountNo].userId);\r\n\r\n        return accountInfo;\r\n\t}\t\r\n    // 口座開設\r\n\tfunction registAccountInfo(bytes32 _accountNo,bytes32 _accountHolderName, uint _accountType,bytes32 _currency,uint _balance,uint _userId) public returns(bool result) {\r\n\t\t\t\r\n\t\t// 口座情報の登録\r\n        accountInfoList[_accountNo].accountNo = _accountNo;\r\n\t\taccountInfoList[_accountNo].accountHolderName = _accountHolderName;\r\n\t\taccountInfoList[_accountNo].accountType = _accountType;\r\n        accountInfoList[_accountNo].currency = _currency;\r\n        accountInfoList[_accountNo].balance = _balance;\r\n        accountInfoList[_accountNo].userId = _userId;\r\n        accountInfoList[_accountNo].createTimestamp = block.timestamp;\r\n        accountInfoList[_accountNo].updateTimestamp = block.timestamp;\r\n        accountInfoList[_accountNo].delFlg = false;\r\n        \r\n        userAccountIndex[_userId].push(_accountNo);\r\n\t\t\r\n\t\treturn true;\r\n\t}\r\n    \r\n    //口座閉塞\r\n    function deleteAccountInfo(bytes32 _accountNo) public returns(bool result) {\r\n\t\t\t\r\n\t\t// 口座の有無確認\r\n        if(checkAccountExistence(_accountNo) == false){\r\n            return false ;\r\n        }\r\n        \r\n        accountInfoList[_accountNo].delFlg = true;\r\n        \r\n\t\treturn true;\r\n\t}\r\n\r\n    // トランザクションの参照\r\n\tfunction getTransactionInfo(uint _transactionId) public constant returns(bytes32[13] transactionInfo) {\r\n\t\t\t\r\n\t\t// ユーザ情報の参照\r\n\t\ttransactionInfo[0] = bytes32(transactionInfoList[_transactionId].transactionId);\r\n\t\ttransactionInfo[1] = bytes32(transactionInfoList[_transactionId].transactionStatus);\r\n\t\ttransactionInfo[2] = bytes32(transactionInfoList[_transactionId].transactionType);\r\n\t\ttransactionInfo[3] = transactionInfoList[_transactionId].fromAccountNo;\r\n\t\ttransactionInfo[4] = transactionInfoList[_transactionId].toAccountNo;\r\n\t\ttransactionInfo[5] = transactionInfoList[_transactionId].fromAccountHolderName;\r\n\t\ttransactionInfo[6] = transactionInfoList[_transactionId].toAccountHolderName;\r\n\t\ttransactionInfo[7] = transactionInfoList[_transactionId].fromCurrency;\r\n\t\ttransactionInfo[8] = transactionInfoList[_transactionId].toCurrency;\r\n        transactionInfo[9] = transactionInfoList[_transactionId].rate;\r\n\t\ttransactionInfo[10] = bytes32(transactionInfoList[_transactionId].fromPrinc);\r\n\t\ttransactionInfo[11] = bytes32(transactionInfoList[_transactionId].toPrinc);\r\n\t\ttransactionInfo[12] = bytes32(transactionInfoList[_transactionId].timestamp);\r\n\r\n        return transactionInfo;\r\n\t}\t\r\n\r\n    // 振込\r\n\tfunction transfer(uint _transactionType,bytes32 _fromAccountNo,bytes32 _toAccountNo,bytes32 _fromAccountHolderName,bytes32 _toAccountHolderName,bytes32 _fromCurrency,bytes32 _toCurrency,bytes32 _rate,uint _fromPrinc,uint _toPrinc) public returns(bool result) {\r\n\t\t\t\r\n        // 出金元の通貨チェック\r\n        if(accountInfoList[_fromAccountNo].currency != _fromCurrency){\r\n            return false ;            \r\n        }\r\n        // 出金元の残高チェック\r\n        if(accountInfoList[_fromAccountNo].balance < _fromPrinc){\r\n            return false ;\r\n        }\r\n\r\n        //トランザクションの登録\r\n        transactionCounter++;\r\n        transactionInfoList[transactionCounter].transactionId = transactionCounter ;\r\n        transactionInfoList[transactionCounter].transactionStatus = 0 ;\r\n        transactionInfoList[transactionCounter].transactionType = _transactionType ;\r\n\r\n        transactionInfoList[transactionCounter].fromAccountNo = _fromAccountNo ;\r\n        transactionInfoList[transactionCounter].toAccountNo = _toAccountNo ;\r\n\r\n        transactionInfoList[transactionCounter].fromAccountHolderName = _fromAccountHolderName ;\r\n        transactionInfoList[transactionCounter].toAccountHolderName = _toAccountHolderName ;\r\n\r\n        transactionInfoList[transactionCounter].fromCurrency = _fromCurrency ;\r\n        transactionInfoList[transactionCounter].toCurrency =  _toCurrency ;\r\n        transactionInfoList[transactionCounter].rate = _rate ;\r\n\r\n        transactionInfoList[transactionCounter].fromPrinc =  _fromPrinc ;\r\n        transactionInfoList[transactionCounter].toPrinc =  _toPrinc ;\r\n\r\n        transactionInfoList[transactionCounter].timestamp = block.timestamp ;        \r\n\r\n        //残高の増減\r\n        accountInfoList[_fromAccountNo].balance = accountInfoList[_fromAccountNo].balance - _fromPrinc;\r\n        accountInfoList[_fromAccountNo].updateTimestamp = block.timestamp;\r\n        accountInfoList[_toAccountNo].balance = accountInfoList[_toAccountNo].balance + _toPrinc;\r\n        accountInfoList[_toAccountNo].updateTimestamp = block.timestamp;\r\n        \r\n        //インデックスの登録\r\n        userTransactionIndex[accountInfoList[_fromAccountNo].userId].push(transactionCounter);\r\n        if(accountInfoList[_fromAccountNo].userId != accountInfoList[_toAccountNo].userId){\r\n            userTransactionIndex[accountInfoList[_toAccountNo].userId].push(transactionCounter);        \r\n        }\r\n        \r\n        return true;\r\n\t}\r\n    \r\n    \r\n \r\n// --Public関数定義 End--\r\n\r\n// --Private関数定義 Start--\r\n\tfunction checkUserExistence(uint _userId) private constant returns (bool result) {\r\n\t\tif (_userId != userInfoList[_userId].userId) {\r\n\t\t\treturn false;\r\n\t\t}\r\n\t\tif (userInfoList[_userId].delFlg) {\r\n\t\t\treturn false;\r\n\t\t}\r\n\t\treturn true;\r\n\t}\r\n\t\r\n\tfunction checkAccountExistence(bytes32 _accountNo) private constant returns (bool result) {\r\n\t\tif (_accountNo != accountInfoList[_accountNo].accountNo) {\r\n\t\t\treturn false;\r\n\t\t}\r\n\t\tif (accountInfoList[_accountNo].delFlg) {\r\n\t\t\treturn false;\r\n\t\t}\r\n\t\treturn true;\r\n\t}    \r\n// --Private関数定義 End--\r\n}\r\n",
  "sourcePath": "/home/ec2-user/truffle/contracts/Bank.sol",
  "compiler": {
    "name": "solc",
    "version": "0.4.19+commit.c4cbbb05.Emscripten.clang"
  },
  "schemaVersion": "1.0.1",
  "updatedAt": "2018-06-05T03:44:53.478Z"
}