{
  "contractName": "TicketToken",
  "abi": [
    {
      "constant": true,
      "inputs": [
        {
          "name": "",
          "type": "address"
        }
      ],
      "name": "ownerToTicketIndex",
      "outputs": [
        {
          "name": "",
          "type": "uint256"
        }
      ],
      "payable": false,
      "stateMutability": "view",
      "type": "function"
    },
    {
      "constant": true,
      "inputs": [
        {
          "name": "",
          "type": "address"
        },
        {
          "name": "",
          "type": "uint256"
        }
      ],
      "name": "ownedTicketList",
      "outputs": [
        {
          "name": "",
          "type": "uint256"
        }
      ],
      "payable": false,
      "stateMutability": "view",
      "type": "function"
    },
    {
      "constant": true,
      "inputs": [
        {
          "name": "",
          "type": "uint256"
        }
      ],
      "name": "ticketToApprovedIndex",
      "outputs": [
        {
          "name": "",
          "type": "address"
        }
      ],
      "payable": false,
      "stateMutability": "view",
      "type": "function"
    },
    {
      "constant": true,
      "inputs": [
        {
          "name": "",
          "type": "uint256"
        }
      ],
      "name": "ticketToOwnerIndex",
      "outputs": [
        {
          "name": "",
          "type": "address"
        }
      ],
      "payable": false,
      "stateMutability": "view",
      "type": "function"
    },
    {
      "anonymous": false,
      "inputs": [
        {
          "indexed": false,
          "name": "from",
          "type": "address"
        },
        {
          "indexed": false,
          "name": "to",
          "type": "address"
        },
        {
          "indexed": false,
          "name": "tokenId",
          "type": "uint256"
        }
      ],
      "name": "Transfer",
      "type": "event"
    },
    {
      "anonymous": false,
      "inputs": [
        {
          "indexed": false,
          "name": "owner",
          "type": "address"
        },
        {
          "indexed": false,
          "name": "approved",
          "type": "address"
        },
        {
          "indexed": false,
          "name": "tokenId",
          "type": "uint256"
        }
      ],
      "name": "Approval",
      "type": "event"
    },
    {
      "anonymous": false,
      "inputs": [
        {
          "indexed": true,
          "name": "_owner",
          "type": "address"
        },
        {
          "indexed": true,
          "name": "_operator",
          "type": "address"
        },
        {
          "indexed": false,
          "name": "_approved",
          "type": "bool"
        }
      ],
      "name": "ApprovalForAll",
      "type": "event"
    },
    {
      "constant": true,
      "inputs": [
        {
          "name": "_interfaceID",
          "type": "bytes4"
        }
      ],
      "name": "supportsInterface",
      "outputs": [
        {
          "name": "",
          "type": "bool"
        }
      ],
      "payable": false,
      "stateMutability": "view",
      "type": "function"
    },
    {
      "constant": true,
      "inputs": [
        {
          "name": "_owner",
          "type": "address"
        }
      ],
      "name": "balanceOf",
      "outputs": [
        {
          "name": "count",
          "type": "uint256"
        }
      ],
      "payable": false,
      "stateMutability": "view",
      "type": "function"
    },
    {
      "constant": false,
      "inputs": [
        {
          "name": "_to",
          "type": "address"
        },
        {
          "name": "_tokenId",
          "type": "uint256"
        }
      ],
      "name": "transfer",
      "outputs": [],
      "payable": false,
      "stateMutability": "nonpayable",
      "type": "function"
    },
    {
      "constant": false,
      "inputs": [
        {
          "name": "_to",
          "type": "address"
        },
        {
          "name": "_tokenId",
          "type": "uint256"
        }
      ],
      "name": "approve",
      "outputs": [],
      "payable": true,
      "stateMutability": "payable",
      "type": "function"
    },
    {
      "constant": true,
      "inputs": [
        {
          "name": "_tokenId",
          "type": "uint256"
        }
      ],
      "name": "getApproved",
      "outputs": [
        {
          "name": "",
          "type": "address"
        }
      ],
      "payable": false,
      "stateMutability": "view",
      "type": "function"
    },
    {
      "constant": false,
      "inputs": [
        {
          "name": "_operator",
          "type": "address"
        },
        {
          "name": "_approved",
          "type": "bool"
        }
      ],
      "name": "setApprovalForAll",
      "outputs": [],
      "payable": false,
      "stateMutability": "nonpayable",
      "type": "function"
    },
    {
      "constant": true,
      "inputs": [
        {
          "name": "_owner",
          "type": "address"
        },
        {
          "name": "_operator",
          "type": "address"
        }
      ],
      "name": "isApprovedForAll",
      "outputs": [
        {
          "name": "",
          "type": "bool"
        }
      ],
      "payable": false,
      "stateMutability": "view",
      "type": "function"
    },
    {
      "constant": false,
      "inputs": [
        {
          "name": "_from",
          "type": "address"
        },
        {
          "name": "_to",
          "type": "address"
        },
        {
          "name": "_tokenId",
          "type": "uint256"
        }
      ],
      "name": "transferFrom",
      "outputs": [],
      "payable": true,
      "stateMutability": "payable",
      "type": "function"
    },
    {
      "constant": false,
      "inputs": [
        {
          "name": "_from",
          "type": "address"
        },
        {
          "name": "_to",
          "type": "address"
        },
        {
          "name": "_tokenId",
          "type": "uint256"
        }
      ],
      "name": "safeTransferFrom",
      "outputs": [],
      "payable": true,
      "stateMutability": "payable",
      "type": "function"
    },
    {
      "constant": false,
      "inputs": [
        {
          "name": "_from",
          "type": "address"
        },
        {
          "name": "_to",
          "type": "address"
        },
        {
          "name": "_tokenId",
          "type": "uint256"
        },
        {
          "name": "data",
          "type": "bytes"
        }
      ],
      "name": "safeTransferFrom",
      "outputs": [],
      "payable": true,
      "stateMutability": "payable",
      "type": "function"
    },
    {
      "constant": true,
      "inputs": [],
      "name": "totalSupply",
      "outputs": [
        {
          "name": "",
          "type": "uint256"
        }
      ],
      "payable": false,
      "stateMutability": "view",
      "type": "function"
    },
    {
      "constant": true,
      "inputs": [
        {
          "name": "_tokenId",
          "type": "uint256"
        }
      ],
      "name": "ownerOf",
      "outputs": [
        {
          "name": "owner",
          "type": "address"
        }
      ],
      "payable": false,
      "stateMutability": "view",
      "type": "function"
    },
    {
      "constant": true,
      "inputs": [
        {
          "name": "_owner",
          "type": "address"
        }
      ],
      "name": "tokensOfOwner",
      "outputs": [
        {
          "name": "ownerTokens",
          "type": "uint256[]"
        }
      ],
      "payable": false,
      "stateMutability": "view",
      "type": "function"
    },
    {
      "constant": true,
      "inputs": [
        {
          "name": "_ticketId",
          "type": "uint256"
        }
      ],
      "name": "getTicketInfoById",
      "outputs": [
        {
          "name": "ticketInfo",
          "type": "bytes32[7]"
        }
      ],
      "payable": false,
      "stateMutability": "view",
      "type": "function"
    },
    {
      "constant": false,
      "inputs": [
        {
          "name": "_ticketInternalId",
          "type": "uint256"
        },
        {
          "name": "_ticketCategoryName",
          "type": "bytes32"
        },
        {
          "name": "_IPFSHashFirst",
          "type": "bytes32"
        },
        {
          "name": "_IPFSHashSecond",
          "type": "bytes32"
        }
      ],
      "name": "issueTicket",
      "outputs": [],
      "payable": false,
      "stateMutability": "nonpayable",
      "type": "function"
    }
  ],
  "bytecode": "0x608060405234801561001057600080fd5b506119bd806100206000396000f300608060405260043610610107576000357c0100000000000000000000000000000000000000000000000000000000900463ffffffff16806301ffc9a71461010c578063081812fc14610170578063095ea7b3146101dd57806315a6374f1461021d57806318160ddd1461027457806323b872dd1461029f5780632cb560a3146102ff57806342842e0e146103605780636352211e146103c05780636ffa47471461042d57806370a08231146104845780638462151c146104db578063a22cb46514610573578063a9059cbb146105c2578063ad15f5d21461060f578063b88d4fde1461067c578063ccac6ed3146106f4578063e985e9c514610761578063ee19fa93146107dc575b600080fd5b34801561011857600080fd5b5061015660048036038101908080357bffffffffffffffffffffffffffffffffffffffffffffffffffffffff19169060200190929190505050610845565b604051808215151515815260200191505060405180910390f35b34801561017c57600080fd5b5061019b60048036038101908080359060200190929190505050610b56565b604051808273ffffffffffffffffffffffffffffffffffffffff1673ffffffffffffffffffffffffffffffffffffffff16815260200191505060405180910390f35b61021b600480360381019080803573ffffffffffffffffffffffffffffffffffffffff16906020019092919080359060200190929190505050610b93565b005b34801561022957600080fd5b5061025e600480360381019080803573ffffffffffffffffffffffffffffffffffffffff169060200190929190505050610bb6565b6040518082815260200191505060405180910390f35b34801561028057600080fd5b50610289610bce565b6040518082815260200191505060405180910390f35b6102fd600480360381019080803573ffffffffffffffffffffffffffffffffffffffff169060200190929190803573ffffffffffffffffffffffffffffffffffffffff16906020019092919080359060200190929190505050610bda565b005b34801561030b57600080fd5b5061034a600480360381019080803573ffffffffffffffffffffffffffffffffffffffff16906020019092919080359060200190929190505050610bea565b6040518082815260200191505060405180910390f35b6103be600480360381019080803573ffffffffffffffffffffffffffffffffffffffff169060200190929190803573ffffffffffffffffffffffffffffffffffffffff16906020019092919080359060200190929190505050610c1a565b005b3480156103cc57600080fd5b506103eb60048036038101908080359060200190929190505050610c3b565b604051808273ffffffffffffffffffffffffffffffffffffffff1673ffffffffffffffffffffffffffffffffffffffff16815260200191505060405180910390f35b34801561043957600080fd5b5061048260048036038101908080359060200190929190803560001916906020019092919080356000191690602001909291908035600019169060200190929190505050610c78565b005b34801561049057600080fd5b506104c5600480360381019080803573ffffffffffffffffffffffffffffffffffffffff169060200190929190505050610e0c565b6040518082815260200191505060405180910390f35b3480156104e757600080fd5b5061051c600480360381019080803573ffffffffffffffffffffffffffffffffffffffff169060200190929190505050610e1e565b6040518080602001828103825283818151815260200191508051906020019060200280838360005b8381101561055f578082015181840152602081019050610544565b505050509050019250505060405180910390f35b34801561057f57600080fd5b506105c0600480360381019080803573ffffffffffffffffffffffffffffffffffffffff169060200190929190803515159060200190929190505050610f6b565b005b3480156105ce57600080fd5b5061060d600480360381019080803573ffffffffffffffffffffffffffffffffffffffff16906020019092919080359060200190929190505050610f6f565b005b34801561061b57600080fd5b5061063a6004803603810190808035906020019092919050505061100a565b604051808273ffffffffffffffffffffffffffffffffffffffff1673ffffffffffffffffffffffffffffffffffffffff16815260200191505060405180910390f35b6106f2600480360381019080803573ffffffffffffffffffffffffffffffffffffffff169060200190929190803573ffffffffffffffffffffffffffffffffffffffff1690602001909291908035906020019092919080359060200190820180359060200191909192939192939050505061103d565b005b34801561070057600080fd5b5061071f60048036038101908080359060200190929190505050611082565b604051808273ffffffffffffffffffffffffffffffffffffffff1673ffffffffffffffffffffffffffffffffffffffff16815260200191505060405180910390f35b34801561076d57600080fd5b506107c2600480360381019080803573ffffffffffffffffffffffffffffffffffffffff169060200190929190803573ffffffffffffffffffffffffffffffffffffffff1690602001909291905050506110b5565b604051808215151515815260200191505060405180910390f35b3480156107e857600080fd5b50610807600480360381019080803590602001909291905050506110bd565b6040518082600760200280838360005b83811015610832578082015181840152602081019050610817565b5050505090500191505060405180910390f35b600060405180807f737570706f727473496e74657266616365286279746573342900000000000000815250601901905060405180910390207bffffffffffffffffffffffffffffffffffffffffffffffffffffffff1916827bffffffffffffffffffffffffffffffffffffffffffffffffffffffff19161480610b4f575060405180807f746f6b656e4d657461646174612875696e742c737472696e6729000000000000815250601a019050604051809103902060405180807f746f6b656e734f664f776e6572286164647265737329000000000000000000008152506016019050604051809103902060405180807f7472616e7366657246726f6d28616464726573732c616464726573732c75696e81526020017f74290000000000000000000000000000000000000000000000000000000000008152506022019050604051809103902060405180807f7472616e7366657228616464726573732c75696e7429000000000000000000008152506016019050604051809103902060405180807f617070726f766528616464726573732c75696e742900000000000000000000008152506015019050604051809103902060405180807f6f776e65724f662875696e742900000000000000000000000000000000000000815250600d019050604051809103902060405180807f62616c616e63654f6628616464726573732900000000000000000000000000008152506012019050604051809103902060405180807f746f74616c537570706c79282900000000000000000000000000000000000000815250600d019050604051809103902060405180807f73796d626f6c28290000000000000000000000000000000000000000000000008152506008019050604051809103902060405180807f6e616d6528290000000000000000000000000000000000000000000000000000815250600601905060405180910390201818181818181818187bffffffffffffffffffffffffffffffffffffffffffffffffffffffff1916827bffffffffffffffffffffffffffffffffffffffffffffffffffffffff1916145b9050919050565b60006005600083815260200190815260200160002060009054906101000a900473ffffffffffffffffffffffffffffffffffffffff169050919050565b610b9d338261131c565b1515610ba857600080fd5b610bb28183611388565b5050565b60026020528060005260406000206000915090505481565b60008080549050905090565b610be58383836113de565b505050565b600360205281600052604060002081815481101515610c0557fe5b90600052602060002001600091509150505481565b610c36838383602060405190810160405280600081525061148f565b505050565b60006001600083815260200190815260200160002060009054906101000a900473ffffffffffffffffffffffffffffffffffffffff169050919050565b6000610c826118b8565b600160008054905001915081816000018181525050858160200181815250508481608001906000191690816000191681525050838160a001906000191690816000191681525050828160c00190600019169081600019168152505033816040019073ffffffffffffffffffffffffffffffffffffffff16908173ffffffffffffffffffffffffffffffffffffffff16815250504281606001818152505060008160e001818152505060008190806001815401808255809150509060018203906000526020600020906008020160009091929091909150600082015181600001556020820151816001015560408201518160020160006101000a81548173ffffffffffffffffffffffffffffffffffffffff021916908373ffffffffffffffffffffffffffffffffffffffff160217905550606082015181600301556080820151816004019060001916905560a0820151816005019060001916905560c0820151816006019060001916905560e08201518160070155505050610e0433836114a0565b505050505050565b6000610e1782611585565b9050919050565b6060600060606000806000610e3287611585565b94506000851415610e75576000604051908082528060200260200182016040528015610e6d5781602001602082028038833980820191505090505b509550610f61565b84604051908082528060200260200182016040528015610ea45781602001602082028038833980820191505090505b509350610eaf610bce565b925060009150600190505b8281111515610f5d578673ffffffffffffffffffffffffffffffffffffffff166001600083815260200190815260200160002060009054906101000a900473ffffffffffffffffffffffffffffffffffffffff1673ffffffffffffffffffffffffffffffffffffffff161415610f5057808483815181101515610f3957fe5b906020019060200201818152505081806001019250505b8080600101915050610eba565b8395505b5050505050919050565b5050565b600073ffffffffffffffffffffffffffffffffffffffff168273ffffffffffffffffffffffffffffffffffffffff1614151515610fab57600080fd5b3073ffffffffffffffffffffffffffffffffffffffff168273ffffffffffffffffffffffffffffffffffffffff1614151515610fe657600080fd5b610ff0338261131c565b1515610ffb57600080fd5b6110063383836115d1565b5050565b60056020528060005260406000206000915054906101000a900473ffffffffffffffffffffffffffffffffffffffff1681565b61107b85858585858080601f01602080910402602001604051908101604052809392919081815260200183838082843782019150505050505061148f565b5050505050565b60016020528060005260406000206000915054906101000a900473ffffffffffffffffffffffffffffffffffffffff1681565b600092915050565b6110c561191d565b6000600183039050600080828154811015156110dd57fe5b906000526020600020906008020160000154141515156110fc57600080fd5b60008181548110151561110b57fe5b90600052602060002090600802016000015460010282600060078110151561112f57fe5b6020020190600019169081600019168152505060008181548110151561115157fe5b90600052602060002090600802016001015460010282600160078110151561117557fe5b6020020190600019169081600019168152505060008181548110151561119757fe5b9060005260206000209060080201600401548260026007811015156111b857fe5b602002019060001916908160001916815250506000818154811015156111da57fe5b9060005260206000209060080201600501548260036007811015156111fb57fe5b6020020190600019169081600019168152505060008181548110151561121d57fe5b90600052602060002090600802016006015482600460078110151561123e57fe5b6020020190600019169081600019168152505060008181548110151561126057fe5b906000526020600020906008020160020160009054906101000a900473ffffffffffffffffffffffffffffffffffffffff1673ffffffffffffffffffffffffffffffffffffffff166001028260056007811015156112ba57fe5b602002019060001916908160001916815250506000818154811015156112dc57fe5b90600052602060002090600802016003015460010282600660078110151561130057fe5b6020020190600019169081600019168152505081915050919050565b60008273ffffffffffffffffffffffffffffffffffffffff166001600084815260200190815260200160002060009054906101000a900473ffffffffffffffffffffffffffffffffffffffff1673ffffffffffffffffffffffffffffffffffffffff1614905092915050565b806005600084815260200190815260200160002060006101000a81548173ffffffffffffffffffffffffffffffffffffffff021916908373ffffffffffffffffffffffffffffffffffffffff1602179055505050565b600073ffffffffffffffffffffffffffffffffffffffff168273ffffffffffffffffffffffffffffffffffffffff161415151561141a57600080fd5b3073ffffffffffffffffffffffffffffffffffffffff168273ffffffffffffffffffffffffffffffffffffffff161415151561145557600080fd5b61145f3382611635565b151561146a57600080fd5b611474838261131c565b151561147f57600080fd5b61148a8383836115d1565b505050565b61149a8385846113de565b50505050565b6000826001600084815260200190815260200160002060006101000a81548173ffffffffffffffffffffffffffffffffffffffff021916908373ffffffffffffffffffffffffffffffffffffffff1602179055506114fd83611585565b9050600360008473ffffffffffffffffffffffffffffffffffffffff1673ffffffffffffffffffffffffffffffffffffffff168152602001908152602001600020829080600181540180825580915050906001820390600052602060002001600090919290919091505550806004600084815260200190815260200160002081905550505050565b6000600360008373ffffffffffffffffffffffffffffffffffffffff1673ffffffffffffffffffffffffffffffffffffffff168152602001908152602001600020805490509050919050565b6115db838261131c565b15156115e657600080fd5b6115f083826116a1565b6115fa82826114a0565b6005600082815260200190815260200160002060006101000a81549073ffffffffffffffffffffffffffffffffffffffff0219169055505050565b60008273ffffffffffffffffffffffffffffffffffffffff166005600084815260200190815260200160002060009054906101000a900473ffffffffffffffffffffffffffffffffffffffff1673ffffffffffffffffffffffffffffffffffffffff1614905092915050565b60008060006004600085815260200190815260200160002054925060016116c786611585565b039150600360008673ffffffffffffffffffffffffffffffffffffffff1673ffffffffffffffffffffffffffffffffffffffff1681526020019081526020016000208281548110151561171657fe5b9060005260206000200154905060006001600086815260200190815260200160002060006101000a81548173ffffffffffffffffffffffffffffffffffffffff021916908373ffffffffffffffffffffffffffffffffffffffff16021790555080600360008773ffffffffffffffffffffffffffffffffffffffff1673ffffffffffffffffffffffffffffffffffffffff168152602001908152602001600020848154811015156117c357fe5b90600052602060002001819055506000600360008773ffffffffffffffffffffffffffffffffffffffff1673ffffffffffffffffffffffffffffffffffffffff1681526020019081526020016000208381548110151561181f57fe5b9060005260206000200181905550600360008673ffffffffffffffffffffffffffffffffffffffff1673ffffffffffffffffffffffffffffffffffffffff16815260200190815260200160002080548091906001900361187f9190611940565b50600060046000868152602001908152602001600020819055508260046000838152602001908152602001600020819055505050505050565b610100604051908101604052806000815260200160008152602001600073ffffffffffffffffffffffffffffffffffffffff16815260200160008152602001600080191681526020016000801916815260200160008019168152602001600081525090565b60e060405190810160405280600790602082028038833980820191505090505090565b81548183558181111561196757818360005260206000209182019101611966919061196c565b5b505050565b61198e91905b8082111561198a576000816000905550600101611972565b5090565b905600a165627a7a7230582000fc81dabca89c769f8c32f33fe0f79a8cfb2b1ec77d5fae53ca93548bd11b810029",
  "source": "pragma solidity ^0.4.20;\r\n\r\n/// @title ERC-721 Non-Fungible Token Standard\r\n/// @dev See https://github.com/ethereum/EIPs/blob/master/EIPS/eip-721.md\r\n///  Note: the ERC-165 identifier for this interface is 0x80ac58cd\r\ncontract ERC721 /* is ERC165 */ {\r\n    /// @dev This emits when ownership of any NFT changes by any mechanism.\r\n    ///  This event emits when NFTs are created (`from` == 0) and destroyed\r\n    ///  (`to` == 0). Exception: during contract creation, any number of NFTs\r\n    ///  may be created and assigned without emitting Transfer. At the time of\r\n    ///  any transfer, the approved address for that NFT (if any) is reset to none.\r\n    event Transfer(address indexed _from, address indexed _to, uint indexed _tokenId);\r\n\r\n    /// @dev This emits when the approved address for an NFT is changed or\r\n    ///  reaffirmed. The zero address indicates there is no approved address.\r\n    ///  When a Transfer event emits, this also indicates that the approved\r\n    ///  address for that NFT (if any) is reset to none.\r\n    event Approval(address indexed _owner, address indexed _approved, uint indexed _tokenId);\r\n\r\n    /// @dev This emits when an operator is enabled or disabled for an owner.\r\n    ///  The operator can manage all NFTs of the owner.\r\n    event ApprovalForAll(address indexed _owner, address indexed _operator, bool _approved);\r\n\r\n    /// @notice Count all NFTs assigned to an owner\r\n    /// @dev NFTs assigned to the zero address are considered invalid, and this\r\n    ///  function throws for queries about the zero address.\r\n    /// @param _owner An address for whom to query the balance\r\n    /// @return The number of NFTs owned by `_owner`, possibly zero\r\n    function balanceOf(address _owner) external view returns (uint);\r\n\r\n    /// @notice Find the owner of an NFT\r\n    /// @dev NFTs assigned to zero address are considered invalid, and queries\r\n    ///  about them do throw.\r\n    /// @param _tokenId The identifier for an NFT\r\n    /// @return The address of the owner of the NFT\r\n    function ownerOf(uint _tokenId) external view returns (address);\r\n\r\n    /// @notice Transfers the ownership of an NFT from one address to another address\r\n    /// @dev Throws unless `msg.sender` is the current owner, an authorized\r\n    ///  operator, or the approved address for this NFT. Throws if `_from` is\r\n    ///  not the current owner. Throws if `_to` is the zero address. Throws if\r\n    ///  `_tokenId` is not a valid NFT. When transfer is complete, this function\r\n    ///  checks if `_to` is a smart contract (code size > 0). If so, it calls\r\n    ///  `onERC721Received` on `_to` and throws if the return value is not\r\n    ///  `bytes4(keccak256(\"onERC721Received(address,address,uint,bytes)\"))`.\r\n    /// @param _from The current owner of the NFT\r\n    /// @param _to The new owner\r\n    /// @param _tokenId The NFT to transfer\r\n    /// @param data Additional data with no specified format, sent in call to `_to`\r\n    function safeTransferFrom(address _from, address _to, uint _tokenId, bytes data) external payable;\r\n\r\n    /// @notice Transfers the ownership of an NFT from one address to another address\r\n    /// @dev This works identically to the other function with an extra data parameter,\r\n    ///  except this function just sets data to \"\"\r\n    /// @param _from The current owner of the NFT\r\n    /// @param _to The new owner\r\n    /// @param _tokenId The NFT to transfer\r\n    function safeTransferFrom(address _from, address _to, uint _tokenId) external payable;\r\n\r\n    /// @notice Transfer ownership of an NFT -- THE CALLER IS RESPONSIBLE\r\n    ///  TO CONFIRM THAT `_to` IS CAPABLE OF RECEIVING NFTS OR ELSE\r\n    ///  THEY MAY BE PERMANENTLY LOST\r\n    /// @dev Throws unless `msg.sender` is the current owner, an authorized\r\n    ///  operator, or the approved address for this NFT. Throws if `_from` is\r\n    ///  not the current owner. Throws if `_to` is the zero address. Throws if\r\n    ///  `_tokenId` is not a valid NFT.\r\n    /// @param _from The current owner of the NFT\r\n    /// @param _to The new owner\r\n    /// @param _tokenId The NFT to transfer\r\n    function transferFrom(address _from, address _to, uint _tokenId) external payable;\r\n\r\n    /// @notice Set or reaffirm the approved address for an NFT\r\n    /// @dev The zero address indicates there is no approved address.\r\n    /// @dev Throws unless `msg.sender` is the current NFT owner, or an authorized\r\n    ///  operator of the current owner.\r\n    /// @param _approved The new approved NFT controller\r\n    /// @param _tokenId The NFT to approve\r\n    function approve(address _approved, uint _tokenId) external payable;\r\n\r\n    /// @notice Enable or disable approval for a third party (\"operator\") to manage\r\n    ///  all of `msg.sender`'s assets.\r\n    /// @dev Emits the ApprovalForAll event. The contract MUST allow\r\n    ///  multiple operators per owner.\r\n    /// @param _operator Address to add to the set of authorized operators.\r\n    /// @param _approved True if the operator is approved, false to revoke approval\r\n    function setApprovalForAll(address _operator, bool _approved) external;\r\n\r\n    /// @notice Get the approved address for a single NFT\r\n    /// @dev Throws if `_tokenId` is not a valid NFT\r\n    /// @param _tokenId The NFT to find the approved address for\r\n    /// @return The approved address for this NFT, or the zero address if there is none\r\n    function getApproved(uint _tokenId) external view returns (address);\r\n\r\n    /// @notice Query if an address is an authorized operator for another address\r\n    /// @param _owner The address that owns the NFTs\r\n    /// @param _operator The address that acts on behalf of the owner\r\n    /// @return True if `_operator` is an approved operator for `_owner`, false otherwise\r\n    function isApprovedForAll(address _owner, address _operator) external view returns (bool);\r\n}\r\n\r\ncontract ERC165 {\r\n    /// @notice Query if a contract implements an interface\r\n    /// @param interfaceID The interface identifier, as specified in ERC-165\r\n    /// @dev Interface identification is specified in ERC-165. This function\r\n    ///  uses less than 30,000 gas.\r\n    /// @return `true` if the contract implements `interfaceID` and\r\n    ///  `interfaceID` is not 0xffffffff, `false` otherwise\r\n    function supportsInterface(bytes4 interfaceID) external view returns (bool);\r\n}\r\n\r\n// contract ERC721TokenReceiver {\r\n//     /// @notice Handle the receipt of an NFT\r\n//     /// @dev The ERC721 smart contract calls this function on the\r\n//     /// recipient after a `transfer`. This function MAY throw to revert and reject the transfer. Return\r\n//     /// of other than the magic value MUST result in the transaction being reverted.\r\n//     /// @notice The contract address is always the message sender. \r\n//     /// @param _operator The address which called `safeTransferFrom` function\r\n//     /// @param _from The address which previously owned the token\r\n//     /// @param _tokenId The NFT identifier which is being transferred\r\n//     /// @param _data Additional data with no specified format\r\n//     /// @return `bytes4(keccak256(\"onERC721Received(address,address,uint,bytes)\"))`\r\n//     /// unless throwing\r\n//     function onERC721Received(address _operator, address _from, uint _tokenId, bytes _data) external returns(bytes4);\r\n//  }\r\n\r\n//contract TicketTokenInterface is ERC721 {\r\n    /// @notice ERC721\r\n//}\r\n\r\ncontract TicketToken is ERC721 {\r\n    // TicketTokenabstract contract\r\n    //--  --\r\n    struct Ticket {\r\n        // ID\r\n        uint ticketId ;\r\n        // ID for management in internal systems\r\n        uint ticketInternalId ;\r\n        // ticket issuer address\r\n        address ticketIssuer ;\r\n        // ticket issue time\r\n        uint issueTime ;        \r\n        // ticket\r\n        bytes32 ticketCategoryName ;\r\n        // IPFS32bit\r\n        bytes32 IPFSHashFirst ;\r\n        // IPFS32bit\r\n        bytes32 IPFSHashSecond ;        \r\n        // status\r\n        uint ticketStatus ;\r\n    }\r\n    Ticket[] private tickets ;\r\n    \r\n    // --constant--\r\n    uint constant TICKET_STATUS_ACTIVE = 0;\r\n    uint constant TICKET_STATUS_INACTIVE = 9;\r\n    \r\n\r\n    // --index--\r\n    // IDowner\r\n    mapping (uint => address) public ticketToOwnerIndex ;\r\n    // ownerID\r\n    mapping (address => uint) public ownerToTicketIndex ;\r\n    // ownerID\r\n    mapping (address => uint[]) public ownedTicketList ;\r\n    // ownerID\r\n    mapping(uint => uint) private ownedTicketListIndex ;\r\n    // IDApproved Account\r\n    mapping (uint => address) public ticketToApprovedIndex ;\r\n    \r\n\t// --event--\r\n    event Transfer(address from, address to, uint256 tokenId);\r\n    event Approval(address owner, address approved, uint256 tokenId);\r\n    event ApprovalForAll(address indexed _owner, address indexed _operator, bool _approved);\r\n\t\r\n    // --support interface checking--\r\n    bytes4 constant InterfaceSignature_ERC165 =\r\n        bytes4(keccak256('supportsInterface(bytes4)'));\r\n\r\n    bytes4 constant InterfaceSignature_ERC721 =\r\n        bytes4(keccak256('name()')) ^\r\n        bytes4(keccak256('symbol()')) ^\r\n        bytes4(keccak256('totalSupply()')) ^\r\n        bytes4(keccak256('balanceOf(address)')) ^\r\n        bytes4(keccak256('ownerOf(uint)')) ^\r\n        bytes4(keccak256('approve(address,uint)')) ^\r\n        bytes4(keccak256('transfer(address,uint)')) ^\r\n        bytes4(keccak256('transferFrom(address,address,uint)')) ^\r\n        bytes4(keccak256('tokensOfOwner(address)')) ^\r\n        bytes4(keccak256('tokenMetadata(uint,string)'));\r\n\r\n    /// @notice Introspection interface as per ERC-165 (https://github.com/ethereum/EIPs/issues/165).\r\n    ///  Returns true for any standardized interfaces implemented by this contract. We implement\r\n    ///  ERC-165 (obviously!) and ERC-721.\r\n    function supportsInterface(bytes4 _interfaceID) external view returns (bool)\r\n    {\r\n        return ((_interfaceID == InterfaceSignature_ERC165) || (_interfaceID == InterfaceSignature_ERC721));\r\n    }\r\n\r\n    /// @dev ID\r\n    /// @param _claimant the address we are validating against.\r\n    /// @param _tokenId tokenId\r\n    function _owns(address _claimant, uint _tokenId) internal view returns (bool) {\r\n        return ticketToOwnerIndex[_tokenId] == _claimant;\r\n    }\r\n    \r\n  /// @notice Internal function to add a ticket ID to the list of a given address\r\n  /// @param _to address representing the new owner of the given ticket ID\r\n  /// @param _ticketId uint ID of the token to be added to the ticket list of the given address\r\n  function _addTicket(address _to, uint256 _ticketId) internal {\r\n    ticketToOwnerIndex[_ticketId] = _to;\r\n    uint length = _balanceOf(_to);\r\n    ownedTicketList[_to].push(_ticketId);\r\n    //ownedTicketListIndexIdownedTicketList\r\n    ownedTicketListIndex[_ticketId] = length;\r\n  }\r\n \r\n  /// @notice Internal function to remove a ticket ID from the list of a given address\r\n  /// @param _from address representing the previous owner of the given token ID\r\n  /// @param _ticketId uint256 ID of the token to be removed from the tokens list of the given address\r\n  function _removeTicket(address _from, uint256 _ticketId) internal {\r\n    uint ticketIndex = ownedTicketListIndex[_ticketId];\r\n    uint lastTicketIndex = _balanceOf(_from)-1;\r\n    uint lastTicket = ownedTicketList[_from][lastTicketIndex];\r\n\r\n    ticketToOwnerIndex[_ticketId] = 0;\r\n    ownedTicketList[_from][ticketIndex] = lastTicket;\r\n    ownedTicketList[_from][lastTicketIndex] = 0;\r\n    // Ticket\r\n    // \r\n    // Contract\r\n    \r\n    ownedTicketList[_from].length--;\r\n    ownedTicketListIndex[_ticketId] = 0;\r\n    ownedTicketListIndex[lastTicket] = ticketIndex;\r\n  }    \r\n    /// @dev Assigns ownership of a specific Kitty to an address.\r\n    function _transfer(address _from, address _to, uint _tokenId) internal {\r\n        require(_owns(_from,_tokenId));\r\n        // transfer ownership\r\n        _removeTicket(_from,_tokenId) ;\r\n        _addTicket(_to,_tokenId) ;\r\n\r\n   \t\t// clear any previously approved ownership exchange\r\n        delete ticketToApprovedIndex[_tokenId];\r\n        \r\n        // Emit the transfer event.\r\n        //emit Transfer(_from, _to, _tokenId);\r\n    }\r\n    /// @dev Marks an address as being approved for transferFrom(), overwriting any previous\r\n    ///  approval. Setting _approved to address(0) clears all transfer approval.\r\n    ///  NOTE: _approve() does NOT send the Approval event. This is intentional because\r\n    ///  _approve() and transferFrom() are used together for putting tickets on auction, and\r\n    ///  there is no value in spamming the log with Approval events in that case.\r\n    function _approve(uint256 _tokenId, address _approved) internal {\r\n        ticketToApprovedIndex[_tokenId] = _approved;\r\n    }\r\n\r\n    /// @dev Checks if a given address currently has transferApproval for a particular Ticket.\r\n    /// @param _claimant the address we are confirming ticket is approved for.\r\n    /// @param _tokenId ticket id, only valid when > 0\r\n    function _approvedFor(address _claimant, uint256 _tokenId) internal view returns (bool) {\r\n        return ticketToApprovedIndex[_tokenId] == _claimant;\r\n    }\r\n\r\n    function _transferFrom(address _from,address _to,uint256 _tokenId) internal {\r\n        // Safety check to prevent against an unexpected 0x0 default.\r\n        require(_to != address(0));\r\n        // Disallow transfers to this contract to prevent accidental misuse.\r\n        // The contract should never own any tickets (except very briefly\r\n        // after a gen0 cat is created and before it goes on auction).\r\n        require(_to != address(this));\r\n        // Check for approval and valid ownership\r\n        require(_approvedFor(msg.sender, _tokenId));\r\n        require(_owns(_from, _tokenId));\r\n\r\n        // Reassign ownership (also clears pending approvals and emits Transfer event).\r\n        _transfer(_from, _to, _tokenId);\r\n    }\r\n\r\n    function _safeTransferFrom(address _to,address _from,uint256 _tokenId,bytes data) internal {\r\n        _transferFrom(_from,_to,_tokenId) ;\r\n        // if (_isContract(_to)) {\r\n        //   bytes4 tokenReceiverResponse = ERC721TokenReceiver(_to).onERC721Received.gas(50000)(\r\n        //     _from, _tokenId, _data\r\n        //   );\r\n        //   require(tokenReceiverResponse == bytes4(keccak256(\"onERC721Received(address,uint256,bytes)\")));\r\n        // }\r\n    }\r\n    \r\n    /// @notice Returns the number of Tickets owned by a specific address.\r\n    /// @param _owner The owner address to check.\r\n    /// @dev Required for ERC-721 compliance\r\n    function _balanceOf(address _owner) internal view returns (uint256 count) {\r\n        return ownedTicketList[_owner].length;\r\n    }\r\n\r\n    /// @notice Returns the number of Tickets owned by a specific address.\r\n    /// @param _owner The owner address to check.\r\n    /// @dev Required for ERC-721 compliance\r\n    function balanceOf(address _owner) external view returns (uint256 count) {\r\n        return _balanceOf(_owner);\r\n    }\r\n\r\n    function transfer(\r\n        address _to,\r\n        uint _tokenId\r\n    )\r\n        external\r\n    {\r\n        // Safety check to prevent against an unexpected 0x0 default. \r\n        require(_to != address(0));\r\n        require(_to != address(this));\r\n\r\n        // You can only send your own ticket.\r\n        require(_owns(msg.sender, _tokenId));\r\n\r\n        // Reassign ownership, clear pending approvals, emit Transfer event.\r\n        _transfer(msg.sender, _to, _tokenId);\r\n    }\r\n\r\n    /// @notice Grant another address the right to transfer a specific Ticket via\r\n    ///  transferFrom(). This is the preferred flow for transfering NFTs to contracts.\r\n    /// @param _to The address to be granted transfer approval. Pass address(0) to\r\n    ///  clear all approvals.\r\n    /// @param _tokenId The ID of the Ticket that can be transferred if this call succeeds.\r\n    /// @dev Required for ERC-721 compliance.\r\n    function approve(\r\n        address _to,\r\n        uint256 _tokenId\r\n    )\r\n        external\r\n        payable\r\n    {\r\n        // Only an owner can grant transfer approval.\r\n        require(_owns(msg.sender, _tokenId));\r\n\r\n        // Register the approval (replacing any previous approval).\r\n        _approve(_tokenId, _to);\r\n\r\n        // Emit approval event.\r\n        //emit Approval(msg.sender, _to, _tokenId);\r\n    }\r\n\r\n\r\n    ///  @notice Gets the approved address to take ownership of a given token ID\r\n    ///  @param _tokenId uint256 ID of the token to query the approval of\r\n    ///  @return address currently approved to take ownership of the given token ID\r\n    function getApproved(uint256 _tokenId) external view returns (address)\r\n    {\r\n        return ticketToApprovedIndex[_tokenId];\r\n    }\r\n\r\n    /// @notice Enable or disable approval for a third party (\"operator\") to manage\r\n    ///  all of `msg.sender`'s assets.\r\n    /// @dev Emits the ApprovalForAll event. The contract MUST allow\r\n    ///  multiple operators per owner.\r\n    /// @param _operator Address to add to the set of authorized operators.\r\n    /// @param _approved True if the operator is approved, false to revoke approval\r\n    function setApprovalForAll(address _operator, bool _approved) external \r\n    {\r\n        /// @todo approval for operator(third party)\r\n    }\r\n    \r\n    /// @notice Query if an address is an authorized operator for another address\r\n    /// @param _owner The address that owns the NFTs\r\n    /// @param _operator The address that acts on behalf of the owner\r\n    /// @return True if `_operator` is an approved operator for `_owner`, false otherwise\r\n    function isApprovedForAll(address _owner, address _operator) external view returns (bool)\r\n    {\r\n        /// @todo validating approval for operator(third party)\r\n    }\r\n\r\n    /// @notice Transfer a Ticket owned by another address, for which the calling address\r\n    ///  has previously been granted transfer approval by the owner.\r\n    /// @param _from The address that owns the Ticket to be transfered.\r\n    /// @param _to The address that should take ownership of the Ticket. Can be any address,\r\n    ///  including the caller.\r\n    /// @param _tokenId The ID of the Ticket to be transferred.\r\n    /// @dev Required for ERC-721 compliance.\r\n    function transferFrom(\r\n        address _from,\r\n        address _to,\r\n        uint256 _tokenId\r\n    )\r\n        external\r\n        payable\r\n    {\r\n        _transferFrom(_from,_to,_tokenId) ;\r\n    }\r\n\r\n    /// @notice Transfers the ownership of an NFT from one address to another address\r\n    /// @dev Throws unless `msg.sender` is the current owner, an authorized\r\n    ///  operator, or the approved address for this NFT. Throws if `_from` is\r\n    ///  not the current owner. Throws if `_to` is the zero address. Throws if\r\n    ///  `_tokenId` is not a valid NFT. When transfer is complete, this function\r\n    ///  checks if `_to` is a smart contract (code size > 0). If so, it calls\r\n    ///  `onERC721Received` on `_to` and throws if the return value is not\r\n    ///  `bytes4(keccak256(\"onERC721Received(address,address,uint,bytes)\"))`.\r\n    /// @param _from The current owner of the NFT\r\n    /// @param _to The new owner\r\n    /// @param _tokenId The NFT to transfer\r\n    /// @param data Additional data with no specified format, sent in call to `_to`\r\n    function safeTransferFrom(\r\n        address _from, \r\n        address _to, \r\n        uint _tokenId, \r\n        bytes data) external payable \r\n    {\r\n        _safeTransferFrom(_from,_to,_tokenId,data) ;\r\n    }\r\n\r\n    /// @notice Transfers the ownership of an NFT from one address to another address\r\n    /// @dev This works identically to the other function with an extra data parameter,\r\n    ///  except this function just sets data to \"\"\r\n    /// @param _from The current owner of the NFT\r\n    /// @param _to The new owner\r\n    /// @param _tokenId The NFT to transfer\r\n    function safeTransferFrom(\r\n        address _from, \r\n        address _to, \r\n        uint _tokenId) external payable\r\n    {\r\n        _safeTransferFrom(_from,_to,_tokenId,\"\") ;\r\n    }\r\n\r\n\r\n    /// @notice Returns the total number of Tickets currently in existence.\r\n    /// @dev Required for ERC-721 compliance.\r\n    function totalSupply() public view returns (uint) {\r\n        return tickets.length;\r\n    }\r\n    \r\n    /// @notice Returns the address currently assigned ownership of a given Ticket.\r\n    /// @dev Required for ERC-721 compliance.\r\n    function ownerOf(uint256 _tokenId)\r\n        external\r\n        view\r\n        returns (address owner)\r\n    {\r\n        owner = ticketToOwnerIndex[_tokenId];\r\n\r\n        //require(owner != address(0));\r\n    }\r\n    \r\n    /// @notice Returns a list of all Ticket IDs assigned to an address.\r\n    /// @param _owner The owner whose Tickets we are interested in.\r\n    /// @dev This method MUST NEVER be called by smart contract code. First, it's fairly\r\n    ///  expensive (it walks the entire Ticket array looking for tickets belonging to owner),\r\n    ///  but it also returns a dynamic array, which is only supported for web3 calls, and\r\n    ///  not contract-to-contract calls.\r\n    function tokensOfOwner(address _owner) external view returns(uint256[] ownerTokens) {\r\n        uint256 tokenCount = _balanceOf(_owner);\r\n\r\n        if (tokenCount == 0) {\r\n            // Return an empty array\r\n            return new uint256[](0);\r\n        } else {\r\n            uint256[] memory result = new uint256[](tokenCount);\r\n            uint256 totalTickets = totalSupply();\r\n            uint256 resultIndex = 0;\r\n\r\n            // We count on the fact that all cats have IDs starting at 1 and increasing\r\n            // sequentially up to the totalTickets count.\r\n            uint256 ticketId;\r\n\r\n            for (ticketId = 1; ticketId <= totalTickets; ticketId++) {\r\n                if (ticketToOwnerIndex[ticketId] == _owner) {\r\n                    result[resultIndex] = ticketId;\r\n                    resultIndex++;\r\n                }\r\n            }\r\n\r\n            return result;\r\n        }\r\n    }\r\n\r\n    /// @notice Returns a Ticket Information of given ID\r\n    /// @param _ticketId givenId\r\n    /// @dev This method MUST NEVER be called by smart contract code. First, it's fairly\r\n    ///  expensive (it walks the entire Ticket array looking for tickets belonging to owner),\r\n    ///  but it also returns a dynamic array, which is only supported for web3 calls, and\r\n    ///  not contract-to-contract calls.\r\n    function getTicketInfoById(uint _ticketId) external view returns(bytes32[7] ticketInfo) {\r\n        //ticketId1-1\r\n        uint ticketIndex = _ticketId-1 ;\r\n        \r\n        //\r\n        require(tickets[ticketIndex].ticketId != 0) ;\r\n\r\n        ticketInfo[0] = (bytes32)(tickets[ticketIndex].ticketId) ;\r\n        ticketInfo[1] = (bytes32)(tickets[ticketIndex].ticketInternalId) ;\r\n        ticketInfo[2] = tickets[ticketIndex].ticketCategoryName ;\r\n        ticketInfo[3] = tickets[ticketIndex].IPFSHashFirst ;\r\n        ticketInfo[4] = tickets[ticketIndex].IPFSHashSecond ;\r\n        ticketInfo[5] = (bytes32)(tickets[ticketIndex].ticketIssuer) ;\r\n        ticketInfo[6] = bytes32(tickets[ticketIndex].issueTime) ;       \r\n\r\n        return ticketInfo ;\r\n    }\r\n\r\n\r\n    /// @notice issue a ticket token \r\n    /// @param _ticketInternalId TicketIssuerID\r\n    /// @param _ticketCategoryName Ticket()\r\n    /// @param _IPFSHashFirst IPFS32byte\r\n    /// @param _IPFSHashSecond IPFS32byte\r\n    /// @dev ticket\r\n    function issueTicket(uint _ticketInternalId,bytes32 _ticketCategoryName,bytes32 _IPFSHashFirst,bytes32 _IPFSHashSecond) external {\r\n        // ticketId1\r\n        uint newTicketId = tickets.length + 1;\r\n        \r\n        // // \r\n        Ticket memory newTicket ;\r\n        newTicket.ticketId = newTicketId ;\r\n        newTicket.ticketInternalId = _ticketInternalId ;\r\n        newTicket.ticketCategoryName = _ticketCategoryName ;\r\n        newTicket.IPFSHashFirst = _IPFSHashFirst ;\r\n        newTicket.IPFSHashSecond = _IPFSHashSecond ;\r\n        newTicket.ticketIssuer = msg.sender ;\r\n        newTicket.issueTime = block.timestamp ;\r\n        newTicket.ticketStatus = TICKET_STATUS_ACTIVE ;\r\n        tickets.push(newTicket) ;\r\n        \r\n        _addTicket(msg.sender,newTicketId) ;\r\n    }\r\n}\r\n",
  "sourcePath": "C:\\quorum_test\\truffle\\contracts\\TicketToken.sol",
  "compiler": {
    "name": "solc",
    "version": "0.4.24+commit.e67f0147.Emscripten.clang"
  },
  "schemaVersion": "2.0.1",
  "updatedAt": "2018-07-27T09:59:31.989Z"
}